:100000000C942A000C9434000C9434000C943400AA
:100010000C9434000C9434000C9434000C94340090
:100020000C9434000C9434000C9434000C94340080
:100030000C9434000C9434000C9434000C94340070
:100040000C9434000C9434000C9434000C94340060
:100050000C94340011241FBECFE5D4E0DEBFCDBF29
:100060000E943A000C9450000C9400005D9BFECF5F
:100070008CB908958FEF8ABB1BBA83E389B986E0F8
:1000800080BD88E18AB985E30E9436002FEF80E7C2
:1000900092E0215080409040E1F700C00000F3CF93
:0400A000F894FFCF02
:00000001FF
