S0160000496E746572727570745F426169332E73726563A3
S11300000C942A000C9461000C9434000C94340079
S11300100C9434000C9434000C9434000C9434008C
S11300200C9434000C9434000C9434000C9434007C
S11300300C9434000C9434000C9434000C9434006C
S11300400C9434000C9434000C9434000C9434005C
S11300500C94340011241FBECFE5D4E0DEBFCDBF25
S11300600E9436000C947F000C9400008FEF8ABB32
S11300701BBA81E081BB12BA8BB780648BBF85B792
S1130080826085BF789481E08BBB2FEF39EF40E02D
S1130090215030404040E1F700C0000080E090E093
S11300A08730910584F72BB3220F2BBB2FEF39EF49
S11300B040E0215030404040E1F700C0000001968C
S11300C0EFCF1F920F920FB60F9211242F938F939D
S11300D09F9382990CC081E082BB2FEF80E792E06E
S11300E0215080409040E1F700C0000012BA9F9177
S11300F08F912F910F900FBE0F901F901895F89429
S1050100FFCF2B
S9030000FC
