S00E000030305F4C43442E7372656384
S11300000C942A000C943F000C943F000C943F0085
S11300100C943F000C943F000C943F000C943F0060
S11300200C943F000C943F000C943F000C943F0050
S11300300C943F000C943F000C943F000C943F0040
S11300400C943F000C943F000C943F000C943F0030
S11300500C943F0011241FBECFE5D4E0DEBFCDBF1A
S113006010E0A0E6B0E0ECEBF1E002C005900D92E8
S1130070A037B107D9F70E94C8000C94DC000C9497
S1130080000028B32F70382F307F40E1849FC001D7
S11300901124922F932B98BB98B3946098BB98B378
S11300A09B7F98BB822B88BB88B3846088BB88B352
S11300B08B7F88BB08952FEF80E792E0215080402A
S11300C09040E1F700C0000008958FEF87BB87BB25
S11300D088B38E7F88BB88B38D7F88BB88B38B7FC2
S11300E088BB88B3846088BB88B3806288BB88B3CC
S11300F08B7F88BB0E945B0088E20E9441000E94C3
S11301005B0088B38E7F88BB8EE00E9441000E9412
S11301105B0088B38E7F88BB86E00E9441000E940A
S11301205B00089588B38E7F88BB81E00E94410004
S11301300E945B000895282F30E021503109862F5A
S113014090E4299F800D112498B39E7F98BB815819
S11301500E9441000E945B00089598B3916098BB8F
S11301600E9441000E945B0008950F931F93CF9358
S11301708C01C0E0F801EC0FF11D8081882321F08F
S11301800E94AD00CF5FF6CFCF911F910F910895DC
S11301900E9465000E94920067E081E00E949B003B
S11301A088E50E94AD0061E082E00E949B0080E649
S10F01B090E00E94B500FFCFF894FFCF50
S11301BC496E7075745F615F737472696E67210048
S9030000FC
