:100000000C942A000C9434000C9434000C943400AA
:100010000C9434000C9434000C9434000C94340090
:100020000C9434000C9434000C9434000C94340080
:100030000C9434000C9434000C9434000C94340070
:100040000C9434000C9434000C9434000C94340060
:100050000C94340011241FBECFE5D4E0DEBFCDBF29
:100060000E9436000C944C000C94000087B388600A
:1000700087BB8BE383BF85E48CBF08B601FEFDCF51
:1000800082E088BF83E68CBF8BE283BF08B601FEA7
:0C009000FDCF82E088BFEDCFF894FFCFD9
:00000001FF
