:100000000C942A000C9434000C9434000C943400AA
:100010000C9434000C9434000C9434000C94340090
:100020000C9434000C9434000C9434000C94340080
:100030000C9434000C9434000C9434000C94340070
:100040000C9434000C9434000C9434000C94340060
:100050000C94340011241FBECFE5D4E0DEBFCDBF29
:100060000E943B000C9454000C9400008AE683BF6D
:1000700088E087BB08950E94360080E08F3F49F0FA
:100080008CBFEFE7FEE33197F1F700C000008F5F10
:10009000F5CF823090F38CBFEFE7FEE33197F1F7B5
:0C00A00000C000008150F5CFF894FFCFA5
:00000001FF
