S00B00005350492E737265632D
S11300000C942A000C9434000C9434000C943400A6
S11300100C9434000C9434000C9434000C9434008C
S11300200C9434000C9434000C9434000C9434007C
S11300300C9434000C9434000C9434000C9434006C
S11300400C9434000C9434000C9434000C9434005C
S11300500C94340011241FBECFE5D4E0DEBFCDBF25
S11300600E9444000C946A000C94000087B3806BD7
S113007087BB8DB181658DB988B3806188BB0895D4
S11300808FB9779BFECF08950E943600809910C0E7
S113009088B38F7E88BB8AE00E9440008FE19EE493
S11300A00197F1F700C0000088B3806188BBEECFF0
S11300B08199ECCF88B38F7E88BB80E10E94400099
S11300C08FE19EE40197F1F700C0000088B38061DE
S10B00D088BBDCCFF894FFCFDC
S9030000FC
