S0140000517565744C45445F426169352E73726563FC
S11300000C942A000C943F000C943F000C943F0085
S11300100C943F000C943F000C943F000C943F0060
S11300200C943F000C943F000C943F000C943F0050
S11300300C943F000C943F000C943F000C943F0040
S11300400C943F000C943F000C943F000C943F0030
S11300500C943F0011241FBECFE5D4E0DEBFCDBF1A
S113006010E0A0E6B0E0ECE9F1E002C005900D92EA
S1130070AA36B107D9F70E9482000C94CC000C94E4
S11300800000FC019C01ADECBCEC0E94BD00AC0185
S1130090569547955695479556954795CA01880FA5
S11300A0991F440F551F440F551F440F551F480FE8
S11300B0591FCF01841B950BAC010E94BD0096957E
S11300C0879596958795969587951BBA21E02BBBC6
S11300D0FC01E05AFF4F808188BB8FE99FE00197C4
S11300E0F1F700C000001BBA82E08BBBFA01E05AB2
S11300F0FF4F808188BB8FE99FE00197F1F700C033
S1130100000008958FEF87BB88BB83E08ABB1BBACE
S113011014BA00E010E0D02FC12FC8010E944100A2
S1130120989915C0989905C08D2F9C2F0E94410065
S1130130F9CF0F5F1F4FC8010E944100043611051B
S113014034F080E090E00E94410000E010E09999D2
S1130150E2CF999904C0C8010E944100FACF01502E
S11301601109C8010E9441001123ACF683E690E016
S11301700E94410003E610E0CECFA29FB001B39FDE
S1130180C001A39F700D811D1124911DB29F700D9C
S10F0190811D1124911D0895F894FFCFE7
S10D019CC0F9A4B0999282F8809093
S9030000FC
