:100000000C942A000C9434000C9434000C943400AA
:100010000C9434000C9434000C9434000C94340090
:100020000C9434000C9434000C9434000C94340080
:100030000C9434000C9434000C9434000C94340070
:100040000C9434000C9434000C9434000C94340060
:100050000C94340011241FBECFE5D4E0DEBFCDBF29
:100060000E9436000C9450000C9400008FEF8ABB65
:100070001BBA17BA81E088BB80E090E0B099FECF50
:10008000B09BFECF009719F421E02BBB03C02BB32C
:10009000220F2BBB01968930910581F71BBAECCF5B
:0400A000F894FFCF02
:00000001FF
