S01700004C45445F377468616E685F426169352E73726563EF
S11300000C942A000C943F000C943F000C943F0085
S11300100C943F000C943F000C943F000C943F0060
S11300200C943F000C943F000C943F000C943F0050
S11300300C943F000C943F000C943F000C943F0040
S11300400C943F000C943F000C943F000C943F0030
S11300500C943F0011241FBECFE5D4E0DEBFCDBF1A
S113006010E0A0E6B0E0E6EBF0E002C005900D92EF
S1130070AA36B107D9F70E9441000C9459000C9498
S113008000008FEF84BB85BB80E090E08A3091054F
S1130090DCF7FC01E05AFF4F208125BB2FEF39E646
S11300A048E1215030404040E1F700C00000019693
S10900B0EDCFF894FFCF30
S10D00B6C0F9A4B0999282F880907A
S9030000FC
