:100000000C942A000C9434000C9434000C943400AA
:100010000C9434000C9434000C9434000C94340090
:100020000C9434000C9434000C9443000C94340071
:100030000C9434000C9434000C9434000C94340070
:100040000C9434000C9434000C9434000C94340060
:100050000C94340011241FBECFE5D4E0DEBFCDBF29
:100060000E943D000C945A000C94000087B38062FB
:1000700087BB8DB1806C8DB908958FEF8ABB0E94CC
:1000800036007894FFCF1F920F920FB60F92112473
:100090008F938FB18A3019F481E08BBB05C08FB18B
:1000A000803111F482E08BBB8F910F900FBE0F90C7
:0800B0001F901895F894FFCF92
:00000001FF
