:100000000C942A000C9434000C9434000C943400AA
:100010000C9434000C9434000C9434000C94340090
:100020000C9434000C9440000C9434000C94340074
:100030000C9434000C9434000C9434000C94340070
:100040000C9434000C9434000C9434000C94340060
:100050000C94340011241FBECFE5D4E0DEBFCDBF29
:100060000E9436000C9451000C9400008FEF87BB67
:1000700081EB82BF85E083BF81E089BF7894FFCFA9
:100080001F920F920FB60F9211248F9381EB82BFB4
:1000900088B3809588BB8F910F900FBE0F901F90F3
:0600A0001895F894FFCF53
:00000001FF
