S00F00004354434D6F64652E73726563B6
S11300000C942A000C9434000C9434000C943400A6
S11300100C9434000C9434000C9434000C9434008C
S11300200C9434000C9434000C9434000C9434007C
S11300300C9434000C9434000C9434000C9434006C
S11300400C9434000C9434000C9434000C9434005C
S11300500C94340011241FBECFE5D4E0DEBFCDBF25
S11300600E9436000C943E000C94000089E183BF8A
S11300708AE08CBF87B3886087BBFFCFF894FFCF3B
S9030000FC
