:100000000C942A000C9447000C9447000C94470071
:100010000C9447000C9447000C9447000C94470044
:100020000C9447000C94B2000C9447000C944700C9
:100030000C9447000C9447000C9447000C94470024
:100040000C9447000C9447000C9447000C94470014
:100050000C94470011241FBECFE5D4E0DEBFCDBF16
:1000600010E0A0E6B0E0E6E0F2E002C005900D92FC
:10007000AA36B107D9F720E0AAE6B0E001C01D9288
:10008000A037B207E1F70E9473000C9401010C94B1
:1000900000006AE070E00E94D900AC0120E030E08E
:1000A00023303105FCF418BA91E098BBFB01E05A0B
:1000B000FF4F90819BBB87EE93E00197F1F700C063
:1000C000000018BA92E098BBFA01E05AFF4F908105
:1000D0009BBB87EE93E00197F1F700C000002F5F14
:1000E0003F4FDECF089583E087BB18BA9FEF9ABBDE
:1000F0001BBA83BF82E882BF81E089BF7894809178
:100100006A0090916B000E94490080916C00909170
:100110006D00A0916E00B0916F0084369105A1052D
:10012000B10568F380916A0090916B0001969093FD
:100130006B0080936A0010926C0010926D00109218
:100140006E0010926F008C3391051CF40E944900E0
:10015000D6CF10926B0010926A0080E090E00E946F
:100160004900CDCF1F920F920FB60F9211248F939B
:100170009F93AF93BF9382E882BF80916C00909170
:100180006D00A0916E00B0916F000196A11DB11D90
:1001900080936C0090936D00A0936E00B0936F00FD
:1001A000BF91AF919F918F910F900FBE0F901F90B5
:1001B000189597FB072E16F4009407D077FD09D009
:1001C0000E94ED0007FC05D03EF4909581959F4F6D
:1001D0000895709561957F4F0895AA1BBB1B51E14F
:1001E00007C0AA1FBB1FA617B70710F0A61BB70BA7
:1001F000881F991F5A95A9F780959095BC01CD014C
:060200000895F894FFCF01
:0A020600C0F9A4B0999282F880902C
:00000001FF
