:100000000C942A000C943C000C943C000C943C0092
:100010000C943C000C943C000C943C000C943C0070
:100020000C943C000C9462000C943C000C943C003A
:100030000C943C000C943C000C943C000C943C0050
:100040000C943C000C943C000C943C000C943C0040
:100050000C943C0011241FBECFE5D4E0DEBFCDBF21
:1000600020E0A0E6B0E001C01D92A436B207E1F79F
:100070000E943E000C9489000C94000083E083BF32
:1000800082E882BF89B7816089BF789481E08ABBAA
:100090001BBA8091600090916100A0916200B091C4
:1000A0006300843F9140A105B10599F78BB380951A
:1000B0008BBB10926000109261001092620010924F
:1000C0006300E7CF1F920F920FB60F9211248F9308
:1000D0009F93AF93BF9382E882BF8091600090911D
:1000E0006100A0916200B09163000196A11DB11D55
:1000F0008093600090936100A0936200B0936300CE
:10010000BF91AF919F918F910F900FBE0F901F9055
:060110001895F894FFCFE2
:00000001FF
