S00E0000454550524F4D2E737265634E
S11300000C942A000C9434000C9434000C943400A6
S11300100C9434000C9434000C9434000C9434008C
S11300200C9434000C9434000C9434000C9434007C
S11300300C9434000C9434000C9434000C9434006C
S11300400C9434000C9434000C9434000C9434005C
S11300500C94340011241FBECFE5D4E0DEBFCDBF25
S11300600E944B000C9472000C940000E199FECFA6
S11300709FBB8EBB6DBB8CB384608CBB8CB3826026
S11300808CBB0895E199FECF9FBB8EBB8CB381607E
S11300908CBB8DB3089517BA8FEF84BB81BBC0E0CE
S11300A0D0E0B09905C0B09BFECF2196C5BBF9CF77
S11300B0B19905C0B19BFECF2197C5BBF2CFB299D0
S11300C008C0B29BFECF65E0CE010E943600C5BBDE
S11300D0E8CFB399E6CFB39BFECFCE010E94420096
S10B00E082BBDFCFF894FFCFCF
S9030000FC
